{
  "transactions": [
    {
      "hash": "0x6b684c48de65b3a0f8364de3951087b0a3ba4cee6fab33744f2c8622e90fe647",
      "transactionType": "CALL",
      "contractName": "BasicNft",
      "contractAddress": "0xf7607B92190da6a5e8ebdf0588d5A74D91375DDF",
      "function": "mintNft(string)",
      "arguments": [
        "https://pin.ski/44yj2SG"
      ],
      "transaction": {
        "type": "0x02",
        "from": "0x75de17099c462ba5d75954717b0e4d322c7c6af3",
        "to": "0xf7607b92190da6a5e8ebdf0588d5a74d91375ddf",
        "gas": "0x2697d",
        "value": "0x0",
        "data": "0xda86f4a90000000000000000000000000000000000000000000000000000000000000020000000000000000000000000000000000000000000000000000000000000001768747470733a2f2f70696e2e736b692f3434796a325347000000000000000000",
        "nonce": "0x8",
        "accessList": []
      },
      "additionalContracts": [],
      "isFixedGasLimit": false
    }
  ],
  "receipts": [
    {
      "transactionHash": "0x6b684c48de65b3a0f8364de3951087b0a3ba4cee6fab33744f2c8622e90fe647",
      "transactionIndex": "0xa",
      "blockHash": "0xba9381b1167bd41143201a00cb4d913d69d74fb36c4f7731974e5574be30af01",
      "blockNumber": "0x3a8413",
      "from": "0x75de17099C462Ba5d75954717b0e4D322C7c6aF3",
      "to": "0xf7607B92190da6a5e8ebdf0588d5A74D91375DDF",
      "cumulativeGasUsed": "0x55b4f7",
      "gasUsed": "0x1bf0e",
      "contractAddress": null,
      "logs": [
        {
          "address": "0xf7607B92190da6a5e8ebdf0588d5A74D91375DDF",
          "topics": [
            "0xddf252ad1be2c89b69c2b068fc378daa952ba7f163c4a11628f55a4df523b3ef",
            "0x0000000000000000000000000000000000000000000000000000000000000000",
            "0x00000000000000000000000075de17099c462ba5d75954717b0e4d322c7c6af3",
            "0x0000000000000000000000000000000000000000000000000000000000000000"
          ],
          "data": "0x",
          "blockHash": "0xba9381b1167bd41143201a00cb4d913d69d74fb36c4f7731974e5574be30af01",
          "blockNumber": "0x3a8413",
          "transactionHash": "0x6b684c48de65b3a0f8364de3951087b0a3ba4cee6fab33744f2c8622e90fe647",
          "transactionIndex": "0xa",
          "logIndex": "0x9",
          "removed": false
        }
      ],
      "status": "0x1",
      "logsBloom": "0x00000000004000000000000000000000000000000000000000000000000000000000000000000000000000000000400000000000000000000002000000000000000000000000000000000008000000000000000000000000000000000000000000000000020000000000000400000800000000000000000000000010000000000000000002000000000000000000000000000000000000000000000000000000000000000000000000000000000000000000000000000000000000000000000000000002000000000000000040000000000000000000000000000000000020000000000000000000000000000000000000000000000000000000000000000000",
      "type": "0x2",
      "effectiveGasPrice": "0xb2d05e0b"
    }
  ],
  "libraries": [],
  "pending": [],
  "returns": {},
  "timestamp": 1688627533,
  "chain": 11155111,
  "multi": false,
  "commit": "6479cbb"
}