{
  "transactions": [
    {
      "hash": "0xb3a460565e85d31393812af6b9133e094481d4695fd1c01986555e9c48c4a261",
      "transactionType": "CALL",
      "contractName": "BasicNft",
      "contractAddress": "0xf7607B92190da6a5e8ebdf0588d5A74D91375DDF",
      "function": "mintNft(string)",
      "arguments": [
        "https://ipfs.io/ipfs/QmXFedsHuCwWoFuMfCQNtWpGmcrwqrkjRhcn1RFMAaEEkt?filename=pug.json"
      ],
      "transaction": {
        "type": "0x02",
        "from": "0x75de17099c462ba5d75954717b0e4d322c7c6af3",
        "to": "0xf7607b92190da6a5e8ebdf0588d5a74d91375ddf",
        "gas": "0x34c81",
        "value": "0x0",
        "data": "0xda86f4a90000000000000000000000000000000000000000000000000000000000000020000000000000000000000000000000000000000000000000000000000000005568747470733a2f2f697066732e696f2f697066732f516d584665647348754377576f46754d6643514e745770476d63727771726b6a5268636e3152464d416145456b743f66696c656e616d653d7075672e6a736f6e0000000000000000000000",
        "nonce": "0xa",
        "accessList": []
      },
      "additionalContracts": [],
      "isFixedGasLimit": false
    }
  ],
  "receipts": [
    {
      "transactionHash": "0xb3a460565e85d31393812af6b9133e094481d4695fd1c01986555e9c48c4a261",
      "transactionIndex": "0x2",
      "blockHash": "0xa9d29fa24e866e7d73a5fbeffcad0eeee977e903971ffeff1d963d019d9cf43c",
      "blockNumber": "0x3a845d",
      "from": "0x75de17099C462Ba5d75954717b0e4D322C7c6aF3",
      "to": "0xf7607B92190da6a5e8ebdf0588d5A74D91375DDF",
      "cumulativeGasUsed": "0x4a433",
      "gasUsed": "0x24171",
      "contractAddress": null,
      "logs": [
        {
          "address": "0xf7607B92190da6a5e8ebdf0588d5A74D91375DDF",
          "topics": [
            "0xddf252ad1be2c89b69c2b068fc378daa952ba7f163c4a11628f55a4df523b3ef",
            "0x0000000000000000000000000000000000000000000000000000000000000000",
            "0x00000000000000000000000075de17099c462ba5d75954717b0e4d322c7c6af3",
            "0x0000000000000000000000000000000000000000000000000000000000000001"
          ],
          "data": "0x",
          "blockHash": "0xa9d29fa24e866e7d73a5fbeffcad0eeee977e903971ffeff1d963d019d9cf43c",
          "blockNumber": "0x3a845d",
          "transactionHash": "0xb3a460565e85d31393812af6b9133e094481d4695fd1c01986555e9c48c4a261",
          "transactionIndex": "0x2",
          "logIndex": "0x2",
          "removed": false
        }
      ],
      "status": "0x1",
      "logsBloom": "0x00000000004000000000000000000000000000000000000000000000000000000000000000000000000000000000400000000000000000000002000000040000000000000000000000000008000000000000000000040000000000000000000000000000020000000000000400000800000000000000000000000010000000000000000002000000000000000000000000000000000000000000000000000000000000000000000000000000000000000000000000000000000000000000000000000002000000000000000040000000000000000000000000000000000060000000000000000000000000000000000000000000000000000000000000000000",
      "type": "0x2",
      "effectiveGasPrice": "0xb2d05e0a"
    }
  ],
  "libraries": [],
  "pending": [],
  "returns": {},
  "timestamp": 1688628461,
  "chain": 11155111,
  "multi": false,
  "commit": "6479cbb"
}