{
  "transactions": [
    {
      "hash": "0x2107c9ee53b467d84624725bd578914340f8883d589fc68f864367da7d4f7ff9",
      "transactionType": "CALL",
      "contractName": "BasicNft",
      "contractAddress": "0xd570384F60E8b16eec49a7381C56fCe3618ce383",
      "function": "mintNft(string)",
      "arguments": [
        "https://ipfs.io/ipfs/QmXFedsHuCwWoFuMfCQNtWpGmcrwqrkjRhcn1RFMAaEEkt?filename=pug.json"
      ],
      "transaction": {
        "type": "0x02",
        "from": "0x75de17099c462ba5d75954717b0e4d322c7c6af3",
        "to": "0xd570384f60e8b16eec49a7381c56fce3618ce383",
        "gas": "0x40fe3",
        "value": "0x0",
        "data": "0xda86f4a90000000000000000000000000000000000000000000000000000000000000020000000000000000000000000000000000000000000000000000000000000005568747470733a2f2f697066732e696f2f697066732f516d584665647348754377576f46754d6643514e745770476d63727771726b6a5268636e3152464d416145456b743f66696c656e616d653d7075672e6a736f6e0000000000000000000000",
        "nonce": "0xb",
        "accessList": []
      },
      "additionalContracts": [],
      "isFixedGasLimit": false
    }
  ],
  "receipts": [
    {
      "transactionHash": "0x2107c9ee53b467d84624725bd578914340f8883d589fc68f864367da7d4f7ff9",
      "transactionIndex": "0x2",
      "blockHash": "0x3298b25fff0f8a646f72f884dbabf9b223520983d0360f6cca0791544db9b00f",
      "blockNumber": "0x3a8468",
      "from": "0x75de17099C462Ba5d75954717b0e4D322C7c6aF3",
      "to": "0xd570384F60E8b16eec49a7381C56fCe3618ce383",
      "cumulativeGasUsed": "0xfba4b",
      "gasUsed": "0x2c709",
      "contractAddress": null,
      "logs": [
        {
          "address": "0xd570384F60E8b16eec49a7381C56fCe3618ce383",
          "topics": [
            "0xddf252ad1be2c89b69c2b068fc378daa952ba7f163c4a11628f55a4df523b3ef",
            "0x0000000000000000000000000000000000000000000000000000000000000000",
            "0x00000000000000000000000075de17099c462ba5d75954717b0e4d322c7c6af3",
            "0x0000000000000000000000000000000000000000000000000000000000000000"
          ],
          "data": "0x",
          "blockHash": "0x3298b25fff0f8a646f72f884dbabf9b223520983d0360f6cca0791544db9b00f",
          "blockNumber": "0x3a8468",
          "transactionHash": "0x2107c9ee53b467d84624725bd578914340f8883d589fc68f864367da7d4f7ff9",
          "transactionIndex": "0x2",
          "logIndex": "0x7",
          "removed": false
        }
      ],
      "status": "0x1",
      "logsBloom": "0x00000000004000000000000000000000000000000000000000000000000000000000000000000000000000000000400000000000000000000002000000000000000000000000000000000008000000000000000000000000000000000000000000000000020000000000000000000800000000000000000000000010000000000000000000000000000800000000000000000000004000000000000000000000000000000000000000000008000000000000000000000000000000000000000000000002000000000000000000000000000000000000000000000000000020000000000000000000000000000000000000000000000000000000000000000000",
      "type": "0x2",
      "effectiveGasPrice": "0xb2d05e09"
    }
  ],
  "libraries": [],
  "pending": [],
  "returns": {},
  "timestamp": 1688628593,
  "chain": 11155111,
  "multi": false,
  "commit": "6479cbb"
}