{
  "transactions": [
    {
      "hash": "0x0d47ed5e80deb0ac003dc1b3584327480074564f95ff188a38bc872806f8714d",
      "transactionType": "CALL",
      "contractName": "BasicNft",
      "contractAddress": "0x08144A8C07E471b0cC8b7CC5D68bD9de6d6EB828",
      "function": "mintNft(string)",
      "arguments": [
        "https://pin.ski/44yj2SG"
      ],
      "transaction": {
        "type": "0x02",
        "from": "0x75de17099c462ba5d75954717b0e4d322c7c6af3",
        "to": "0x08144a8c07e471b0cc8b7cc5d68bd9de6d6eb828",
        "gas": "0x2697d",
        "value": "0x0",
        "data": "0xda86f4a90000000000000000000000000000000000000000000000000000000000000020000000000000000000000000000000000000000000000000000000000000001768747470733a2f2f70696e2e736b692f3434796a325347000000000000000000",
        "nonce": "0x4",
        "accessList": []
      },
      "additionalContracts": [],
      "isFixedGasLimit": false
    }
  ],
  "receipts": [
    {
      "transactionHash": "0x0d47ed5e80deb0ac003dc1b3584327480074564f95ff188a38bc872806f8714d",
      "transactionIndex": "0x7",
      "blockHash": "0x09c19b7f8429e4004f8ee661de2dffa35f1965428b5e038813df007c8e6e2cf2",
      "blockNumber": "0x3a72f2",
      "from": "0x75de17099C462Ba5d75954717b0e4D322C7c6aF3",
      "to": "0x08144A8C07E471b0cC8b7CC5D68bD9de6d6EB828",
      "cumulativeGasUsed": "0x4e9a19",
      "gasUsed": "0x1bf0e",
      "contractAddress": null,
      "logs": [
        {
          "address": "0x08144A8C07E471b0cC8b7CC5D68bD9de6d6EB828",
          "topics": [
            "0xddf252ad1be2c89b69c2b068fc378daa952ba7f163c4a11628f55a4df523b3ef",
            "0x0000000000000000000000000000000000000000000000000000000000000000",
            "0x00000000000000000000000075de17099c462ba5d75954717b0e4d322c7c6af3",
            "0x0000000000000000000000000000000000000000000000000000000000000000"
          ],
          "data": "0x",
          "blockHash": "0x09c19b7f8429e4004f8ee661de2dffa35f1965428b5e038813df007c8e6e2cf2",
          "blockNumber": "0x3a72f2",
          "transactionHash": "0x0d47ed5e80deb0ac003dc1b3584327480074564f95ff188a38bc872806f8714d",
          "transactionIndex": "0x7",
          "logIndex": "0xb",
          "removed": false
        }
      ],
      "status": "0x1",
      "logsBloom": "0x00000000004000000000000000000000000000000000000000000000000000000000000000000000000000000000400000000000000000000002000000000000000000000000000000000008000000000000000000000000000000000000000400000000020000000000000000000800000000000000000000000010000000000000000000000000000000000000000010000000000000000000000000000000000000000000000000100000000000000000000000000000000000000000000000000002000000000000000000000000000000000000000000000000000020000000000000000000000000000000000000000000000000000000000000000000",
      "type": "0x2",
      "effectiveGasPrice": "0xb2d0b3fe"
    }
  ],
  "libraries": [],
  "pending": [],
  "returns": {},
  "timestamp": 1688571246,
  "chain": 11155111,
  "multi": false,
  "commit": "6479cbb"
}