{
  "transactions": [
    {
      "hash": "0xe33c59deccb50f9cb15a34c6aca0992878ce54c60714183ea42d8e5d7ed0e8f6",
      "transactionType": "CALL",
      "contractName": "BasicNft",
      "contractAddress": "0x08144A8C07E471b0cC8b7CC5D68bD9de6d6EB828",
      "function": "mintNft(string)",
      "arguments": [
        "https://ipfs.io/ipfs/QmXFedsHuCwWoFuMfCQNtWpGmcrwqrkjRhcn1RFMAaEEkt?filename=pug.json"
      ],
      "transaction": {
        "type": "0x02",
        "from": "0x75de17099c462ba5d75954717b0e4d322c7c6af3",
        "to": "0x08144a8c07e471b0cc8b7cc5d68bd9de6d6eb828",
        "gas": "0x34c81",
        "value": "0x0",
        "data": "0xda86f4a90000000000000000000000000000000000000000000000000000000000000020000000000000000000000000000000000000000000000000000000000000005568747470733a2f2f697066732e696f2f697066732f516d584665647348754377576f46754d6643514e745770476d63727771726b6a5268636e3152464d416145456b743f66696c656e616d653d7075672e6a736f6e0000000000000000000000",
        "nonce": "0x6",
        "accessList": []
      },
      "additionalContracts": [],
      "isFixedGasLimit": false
    }
  ],
  "receipts": [
    {
      "transactionHash": "0xe33c59deccb50f9cb15a34c6aca0992878ce54c60714183ea42d8e5d7ed0e8f6",
      "transactionIndex": "0x2",
      "blockHash": "0x5d1c669ddcef3174568ba3a6d5c3093eaf12b3d9b46e03600092cc1a2cb2f7b8",
      "blockNumber": "0x3a83fc",
      "from": "0x75de17099C462Ba5d75954717b0e4D322C7c6aF3",
      "to": "0x08144A8C07E471b0cC8b7CC5D68bD9de6d6EB828",
      "cumulativeGasUsed": "0xebc04",
      "gasUsed": "0x24171",
      "contractAddress": null,
      "logs": [
        {
          "address": "0x08144A8C07E471b0cC8b7CC5D68bD9de6d6EB828",
          "topics": [
            "0xddf252ad1be2c89b69c2b068fc378daa952ba7f163c4a11628f55a4df523b3ef",
            "0x0000000000000000000000000000000000000000000000000000000000000000",
            "0x00000000000000000000000075de17099c462ba5d75954717b0e4d322c7c6af3",
            "0x0000000000000000000000000000000000000000000000000000000000000001"
          ],
          "data": "0x",
          "blockHash": "0x5d1c669ddcef3174568ba3a6d5c3093eaf12b3d9b46e03600092cc1a2cb2f7b8",
          "blockNumber": "0x3a83fc",
          "transactionHash": "0xe33c59deccb50f9cb15a34c6aca0992878ce54c60714183ea42d8e5d7ed0e8f6",
          "transactionIndex": "0x2",
          "logIndex": "0x4",
          "removed": false
        }
      ],
      "status": "0x1",
      "logsBloom": "0x00000000004000000000000000000000000000000000000000000000000000000000000000000000000000000000400000000000000000000002000000040000000000000000000000000008000000000000000000040000000000000000000400000000020000000000000000000800000000000000000000000010000000000000000000000000000000000000000010000000000000000000000000000000000000000000000000100000000000000000000000000000000000000000000000000002000000000000000000000000000000000000000000000000000060000000000000000000000000000000000000000000000000000000000000000000",
      "type": "0x2",
      "effectiveGasPrice": "0xb2d05e10"
    }
  ],
  "libraries": [],
  "pending": [],
  "returns": {},
  "timestamp": 1688627263,
  "chain": 11155111,
  "multi": false,
  "commit": "6479cbb"
}