{
  "transactions": [
    {
      "hash": "0x6b684c48de65b3a0f8364de3951087b0a3ba4cee6fab33744f2c8622e90fe647",
      "transactionType": "CALL",
      "contractName": "BasicNft",
      "contractAddress": "0xf7607B92190da6a5e8ebdf0588d5A74D91375DDF",
      "function": "mintNft(string)",
      "arguments": [
        "https://pin.ski/44yj2SG"
      ],
      "transaction": {
        "type": "0x02",
        "from": "0x75de17099c462ba5d75954717b0e4d322c7c6af3",
        "to": "0xf7607b92190da6a5e8ebdf0588d5a74d91375ddf",
        "gas": "0x2697d",
        "value": "0x0",
        "data": "0xda86f4a90000000000000000000000000000000000000000000000000000000000000020000000000000000000000000000000000000000000000000000000000000001768747470733a2f2f70696e2e736b692f3434796a325347000000000000000000",
        "nonce": "0x8",
        "accessList": []
      },
      "additionalContracts": [],
      "isFixedGasLimit": false
    }
  ],
  "receipts": [],
  "libraries": [],
  "pending": [
    "0x6b684c48de65b3a0f8364de3951087b0a3ba4cee6fab33744f2c8622e90fe647"
  ],
  "returns": {},
  "timestamp": 1688627527,
  "chain": 11155111,
  "multi": false,
  "commit": "6479cbb"
}